{
  "_format": "hh-sol-artifact-1",
  "contractName": "EggNSRegistry",
  "sourceName": "contracts/EggNSRegistry.sol",
  "abi": [
    {
      "inputs": [],
      "stateMutability": "nonpayable",
      "type": "constructor"
    },
    {
      "inputs": [
        {
          "internalType": "address",
          "name": "owner",
          "type": "address"
        }
      ],
      "name": "OwnableInvalidOwner",
      "type": "error"
    },
    {
      "inputs": [
        {
          "internalType": "address",
          "name": "account",
          "type": "address"
        }
      ],
      "name": "OwnableUnauthorizedAccount",
      "type": "error"
    },
    {
      "inputs": [],
      "name": "ReentrancyGuardReentrantCall",
      "type": "error"
    },
    {
      "anonymous": false,
      "inputs": [
        {
          "indexed": true,
          "internalType": "address",
          "name": "executor",
          "type": "address"
        },
        {
          "indexed": false,
          "internalType": "bool",
          "name": "authorized",
          "type": "bool"
        }
      ],
      "name": "BridgeExecutorAuthorized",
      "type": "event"
    },
    {
      "anonymous": false,
      "inputs": [
        {
          "indexed": true,
          "internalType": "string",
          "name": "name",
          "type": "string"
        },
        {
          "indexed": true,
          "internalType": "address",
          "name": "owner",
          "type": "address"
        },
        {
          "indexed": true,
          "internalType": "uint32",
          "name": "sourceNetwork",
          "type": "uint32"
        },
        {
          "indexed": false,
          "internalType": "uint32",
          "name": "destinationNetwork",
          "type": "uint32"
        }
      ],
      "name": "NameBridged",
      "type": "event"
    },
    {
      "anonymous": false,
      "inputs": [
        {
          "indexed": true,
          "internalType": "string",
          "name": "name",
          "type": "string"
        },
        {
          "indexed": true,
          "internalType": "address",
          "name": "owner",
          "type": "address"
        },
        {
          "indexed": false,
          "internalType": "uint256",
          "name": "expirationTime",
          "type": "uint256"
        },
        {
          "indexed": true,
          "internalType": "uint32",
          "name": "originNetwork",
          "type": "uint32"
        }
      ],
      "name": "NameRegistered",
      "type": "event"
    },
    {
      "anonymous": false,
      "inputs": [
        {
          "indexed": true,
          "internalType": "address",
          "name": "previousOwner",
          "type": "address"
        },
        {
          "indexed": true,
          "internalType": "address",
          "name": "newOwner",
          "type": "address"
        }
      ],
      "name": "OwnershipTransferred",
      "type": "event"
    },
    {
      "inputs": [],
      "name": "REGISTRATION_PERIOD",
      "outputs": [
        {
          "internalType": "uint256",
          "name": "",
          "type": "uint256"
        }
      ],
      "stateMutability": "view",
      "type": "function"
    },
    {
      "inputs": [
        {
          "internalType": "address",
          "name": "",
          "type": "address"
        }
      ],
      "name": "authorizedBridgeExecutors",
      "outputs": [
        {
          "internalType": "bool",
          "name": "",
          "type": "bool"
        }
      ],
      "stateMutability": "view",
      "type": "function"
    },
    {
      "inputs": [
        {
          "internalType": "string",
          "name": "name",
          "type": "string"
        },
        {
          "internalType": "address",
          "name": "nameOwner",
          "type": "address"
        },
        {
          "internalType": "address",
          "name": "resolvedAddress",
          "type": "address"
        },
        {
          "internalType": "uint256",
          "name": "expirationTime",
          "type": "uint256"
        },
        {
          "internalType": "bytes32",
          "name": "contentHash",
          "type": "bytes32"
        },
        {
          "internalType": "uint32",
          "name": "sourceNetwork",
          "type": "uint32"
        }
      ],
      "name": "createBridgedName",
      "outputs": [],
      "stateMutability": "nonpayable",
      "type": "function"
    },
    {
      "inputs": [
        {
          "internalType": "string",
          "name": "name",
          "type": "string"
        },
        {
          "internalType": "address",
          "name": "nameOwner",
          "type": "address"
        },
        {
          "internalType": "address",
          "name": "resolvedAddress",
          "type": "address"
        },
        {
          "internalType": "uint256",
          "name": "expirationTime",
          "type": "uint256"
        },
        {
          "internalType": "bytes32",
          "name": "contentHash",
          "type": "bytes32"
        },
        {
          "internalType": "uint32",
          "name": "sourceNetwork",
          "type": "uint32"
        }
      ],
      "name": "createBridgedNameRestricted",
      "outputs": [],
      "stateMutability": "nonpayable",
      "type": "function"
    },
    {
      "inputs": [
        {
          "internalType": "string",
          "name": "name",
          "type": "string"
        }
      ],
      "name": "getNameContentHash",
      "outputs": [
        {
          "internalType": "bytes32",
          "name": "",
          "type": "bytes32"
        }
      ],
      "stateMutability": "view",
      "type": "function"
    },
    {
      "inputs": [
        {
          "internalType": "string",
          "name": "name",
          "type": "string"
        }
      ],
      "name": "getNameExpirationTime",
      "outputs": [
        {
          "internalType": "uint256",
          "name": "",
          "type": "uint256"
        }
      ],
      "stateMutability": "view",
      "type": "function"
    },
    {
      "inputs": [
        {
          "internalType": "string",
          "name": "name",
          "type": "string"
        }
      ],
      "name": "getNameOriginNetwork",
      "outputs": [
        {
          "internalType": "uint32",
          "name": "",
          "type": "uint32"
        }
      ],
      "stateMutability": "view",
      "type": "function"
    },
    {
      "inputs": [
        {
          "internalType": "string",
          "name": "name",
          "type": "string"
        }
      ],
      "name": "getNameOwner",
      "outputs": [
        {
          "internalType": "address",
          "name": "",
          "type": "address"
        }
      ],
      "stateMutability": "view",
      "type": "function"
    },
    {
      "inputs": [
        {
          "internalType": "string",
          "name": "name",
          "type": "string"
        }
      ],
      "name": "getNameResolvedAddress",
      "outputs": [
        {
          "internalType": "address",
          "name": "",
          "type": "address"
        }
      ],
      "stateMutability": "view",
      "type": "function"
    },
    {
      "inputs": [
        {
          "internalType": "address",
          "name": "nameOwner",
          "type": "address"
        }
      ],
      "name": "getOwnerNames",
      "outputs": [
        {
          "internalType": "string[]",
          "name": "",
          "type": "string[]"
        }
      ],
      "stateMutability": "view",
      "type": "function"
    },
    {
      "inputs": [
        {
          "internalType": "string",
          "name": "name",
          "type": "string"
        }
      ],
      "name": "isNameActive",
      "outputs": [
        {
          "internalType": "bool",
          "name": "",
          "type": "bool"
        }
      ],
      "stateMutability": "view",
      "type": "function"
    },
    {
      "inputs": [
        {
          "internalType": "string",
          "name": "name",
          "type": "string"
        }
      ],
      "name": "isNameBridged",
      "outputs": [
        {
          "internalType": "bool",
          "name": "",
          "type": "bool"
        }
      ],
      "stateMutability": "view",
      "type": "function"
    },
    {
      "inputs": [
        {
          "internalType": "string",
          "name": "",
          "type": "string"
        }
      ],
      "name": "names",
      "outputs": [
        {
          "internalType": "address",
          "name": "owner",
          "type": "address"
        },
        {
          "internalType": "address",
          "name": "resolvedAddress",
          "type": "address"
        },
        {
          "internalType": "uint256",
          "name": "expirationTime",
          "type": "uint256"
        },
        {
          "internalType": "bool",
          "name": "isActive",
          "type": "bool"
        },
        {
          "internalType": "uint32",
          "name": "originNetwork",
          "type": "uint32"
        },
        {
          "internalType": "bytes32",
          "name": "contentHash",
          "type": "bytes32"
        },
        {
          "internalType": "bool",
          "name": "isBridged",
          "type": "bool"
        }
      ],
      "stateMutability": "view",
      "type": "function"
    },
    {
      "inputs": [],
      "name": "owner",
      "outputs": [
        {
          "internalType": "address",
          "name": "",
          "type": "address"
        }
      ],
      "stateMutability": "view",
      "type": "function"
    },
    {
      "inputs": [
        {
          "internalType": "address",
          "name": "",
          "type": "address"
        },
        {
          "internalType": "uint256",
          "name": "",
          "type": "uint256"
        }
      ],
      "name": "ownerNames",
      "outputs": [
        {
          "internalType": "string",
          "name": "",
          "type": "string"
        }
      ],
      "stateMutability": "view",
      "type": "function"
    },
    {
      "inputs": [
        {
          "internalType": "string",
          "name": "name",
          "type": "string"
        },
        {
          "internalType": "address",
          "name": "resolvedAddress",
          "type": "address"
        },
        {
          "internalType": "bytes32",
          "name": "contentHash",
          "type": "bytes32"
        }
      ],
      "name": "registerName",
      "outputs": [],
      "stateMutability": "nonpayable",
      "type": "function"
    },
    {
      "inputs": [],
      "name": "renounceOwnership",
      "outputs": [],
      "stateMutability": "nonpayable",
      "type": "function"
    },
    {
      "inputs": [
        {
          "internalType": "string",
          "name": "name",
          "type": "string"
        }
      ],
      "name": "resolveName",
      "outputs": [
        {
          "internalType": "address",
          "name": "",
          "type": "address"
        }
      ],
      "stateMutability": "view",
      "type": "function"
    },
    {
      "inputs": [
        {
          "internalType": "address",
          "name": "executor",
          "type": "address"
        },
        {
          "internalType": "bool",
          "name": "authorized",
          "type": "bool"
        }
      ],
      "name": "setBridgeExecutorAuthorization",
      "outputs": [],
      "stateMutability": "nonpayable",
      "type": "function"
    },
    {
      "inputs": [
        {
          "internalType": "address",
          "name": "newOwner",
          "type": "address"
        }
      ],
      "name": "transferOwnership",
      "outputs": [],
      "stateMutability": "nonpayable",
      "type": "function"
    }
  ],
  "bytecode": "0x60806040523480156200001157600080fd5b5033600073ffffffffffffffffffffffffffffffffffffffff168173ffffffffffffffffffffffffffffffffffffffff1603620000885760006040517f1e4fbdf70000000000000000000000000000000000000000000000000000000081526004016200007f919062000273565b60405180910390fd5b62000099816200016a60201b60201c565b50600180819055506000732311bfa86ae27fc10e1ad3f805a2f9d22fc8a6a190506001600460008373ffffffffffffffffffffffffffffffffffffffff1673ffffffffffffffffffffffffffffffffffffffff16815260200190815260200160002060006101000a81548160ff0219169083151502179055508073ffffffffffffffffffffffffffffffffffffffff167f4657469e875410154cdbddd8387e864f47496059d69bda66e993dd34b6ef72f960016040516200015b9190620002ad565b60405180910390a250620002ca565b60008060009054906101000a900473ffffffffffffffffffffffffffffffffffffffff169050816000806101000a81548173ffffffffffffffffffffffffffffffffffffffff021916908373ffffffffffffffffffffffffffffffffffffffff1602179055508173ffffffffffffffffffffffffffffffffffffffff168173ffffffffffffffffffffffffffffffffffffffff167f8be0079c531659141344cd1fd0a4f28419497f9722a3daafe3b4186f6b6457e060405160405180910390a35050565b600073ffffffffffffffffffffffffffffffffffffffff82169050919050565b60006200025b826200022e565b9050919050565b6200026d816200024e565b82525050565b60006020820190506200028a600083018462000262565b92915050565b60008115159050919050565b620002a78162000290565b82525050565b6000602082019050620002c460008301846200029c565b92915050565b612e5a80620002da6000396000f3fe608060405234801561001057600080fd5b506004361061012c5760003560e01c8063822fbf58116100ad578063bc19bce511610071578063bc19bce51461037f578063d303f62f146103af578063db6fb793146103df578063e0f540971461040f578063f2fde38b1461042d5761012c565b8063822fbf58146102af5780638da5cb5b146102e55780639558de1714610303578063a9b5564b14610333578063b9d3d32b146103635761012c565b8063397ec6c7116100f4578063397ec6c71461020d5780633da88a3b146102295780634d89cf6214610259578063715018a61461028957806371791865146102935761012c565b8063146c42a214610131578063187026631461016157806327b972f914610191578063317755b4146101c157806336f73c66146101f1575b600080fd5b61014b60048036038101906101469190611fe3565b610449565b60405161015891906120b3565b60405180910390f35b61017b6004803603810190610176919061220a565b610502565b604051610188919061226e565b60405180910390f35b6101ab60048036038101906101a6919061220a565b6105ab565b6040516101b89190612298565b60405180910390f35b6101db60048036038101906101d6919061220a565b6105f6565b6040516101e89190612298565b60405180910390f35b61020b60048036038101906102069190612325565b610641565b005b610227600480360381019061022291906123ce565b610c14565b005b610243600480360381019061023e919061220a565b611014565b604051610250919061244c565b60405180910390f35b610273600480360381019061026e919061220a565b61103f565b6040516102809190612476565b60405180910390f35b61029161107a565b005b6102ad60048036038101906102a89190612325565b61108e565b005b6102c960048036038101906102c4919061220a565b611598565b6040516102dc97969594939291906124a0565b60405180910390f35b6102ed61165a565b6040516102fa9190612298565b60405180910390f35b61031d6004803603810190610318919061250f565b611683565b60405161032a919061226e565b60405180910390f35b61034d6004803603810190610348919061220a565b6116a3565b60405161035a919061253c565b60405180910390f35b61037d60048036038101906103789190612583565b6116ce565b005b6103996004803603810190610394919061220a565b61177f565b6040516103a69190612298565b60405180910390f35b6103c960048036038101906103c4919061220a565b61185d565b6040516103d6919061226e565b60405180910390f35b6103f960048036038101906103f4919061250f565b611895565b60405161040691906126cf565b60405180910390f35b6104176119ad565b604051610424919061244c565b60405180910390f35b6104476004803603810190610442919061250f565b6119b5565b005b6003602052816000526040600020818154811061046557600080fd5b9060005260206000200160009150915050805461048190612720565b80601f01602080910402602001604051908101604052809291908181526020018280546104ad90612720565b80156104fa5780601f106104cf576101008083540402835291602001916104fa565b820191906000526020600020905b8154815290600101906020018083116104dd57829003601f168201915b505050505081565b600080600283604051610515919061278d565b908152602001604051809103902090508060030160009054906101000a900460ff1680156105465750806002015442105b80156105a35750600073ffffffffffffffffffffffffffffffffffffffff168160000160009054906101000a900473ffffffffffffffffffffffffffffffffffffffff1673ffffffffffffffffffffffffffffffffffffffff1614155b915050919050565b60006002826040516105bd919061278d565b908152602001604051809103902060000160009054906101000a900473ffffffffffffffffffffffffffffffffffffffff169050919050565b6000600282604051610608919061278d565b908152602001604051809103902060010160009054906101000a900473ffffffffffffffffffffffffffffffffffffffff169050919050565b600460003373ffffffffffffffffffffffffffffffffffffffff1673ffffffffffffffffffffffffffffffffffffffff16815260200190815260200160002060009054906101000a900460ff16806106cb575061069c61165a565b73ffffffffffffffffffffffffffffffffffffffff163373ffffffffffffffffffffffffffffffffffffffff16145b61070a576040517f08c379a0000000000000000000000000000000000000000000000000000000008152600401610701906127f0565b60405180910390fd5b610712611a3b565b8560038151101580156107275750603f815111155b610766576040517f08c379a000000000000000000000000000000000000000000000000000000000815260040161075d9061285c565b60405180910390fd5b61076f81611a81565b6107ae576040517f08c379a00000000000000000000000000000000000000000000000000000000081526004016107a5906128c8565b60405180910390fd5b866107b881611d01565b156107f8576040517f08c379a00000000000000000000000000000000000000000000000000000000081526004016107ef90612934565b60405180910390fd5b600073ffffffffffffffffffffffffffffffffffffffff168773ffffffffffffffffffffffffffffffffffffffff1603610867576040517f08c379a000000000000000000000000000000000000000000000000000000000815260040161085e906129a0565b60405180910390fd5b600073ffffffffffffffffffffffffffffffffffffffff168673ffffffffffffffffffffffffffffffffffffffff16036108d6576040517f08c379a00000000000000000000000000000000000000000000000000000000081526004016108cd90612a0c565b60405180910390fd5b428511610918576040517f08c379a000000000000000000000000000000000000000000000000000000000815260040161090f90612a78565b60405180910390fd5b6040518060e001604052808873ffffffffffffffffffffffffffffffffffffffff1681526020018773ffffffffffffffffffffffffffffffffffffffff1681526020018681526020016001151581526020018463ffffffff16815260200185815260200160011515815250600289604051610993919061278d565b908152602001604051809103902060008201518160000160006101000a81548173ffffffffffffffffffffffffffffffffffffffff021916908373ffffffffffffffffffffffffffffffffffffffff16021790555060208201518160010160006101000a81548173ffffffffffffffffffffffffffffffffffffffff021916908373ffffffffffffffffffffffffffffffffffffffff1602179055506040820151816002015560608201518160030160006101000a81548160ff02191690831515021790555060808201518160030160016101000a81548163ffffffff021916908363ffffffff16021790555060a0820151816004015560c08201518160050160006101000a81548160ff021916908315150217905550905050600360008873ffffffffffffffffffffffffffffffffffffffff1673ffffffffffffffffffffffffffffffffffffffff16815260200190815260200160002088908060018154018082558091505060019003906000526020600020016000909190919091509081610b1e9190612c44565b506000610b29611daa565b90508363ffffffff168873ffffffffffffffffffffffffffffffffffffffff168a604051610b57919061278d565b60405180910390207fe515f8c410e9b7e3bffbcb02b4689bc185588b6d5c0460847c0879e808cb1e6889604051610b8e919061244c565b60405180910390a48363ffffffff168873ffffffffffffffffffffffffffffffffffffffff168a604051610bc2919061278d565b60405180910390207fd09df068ae264732164764454d91f03a7f4296855bdd23645a3683ccedd5147684604051610bf99190612476565b60405180910390a4505050610c0c611ddf565b505050505050565b610c1c611a3b565b826003815110158015610c315750603f815111155b610c70576040517f08c379a0000000000000000000000000000000000000000000000000000000008152600401610c679061285c565b60405180910390fd5b610c7981611a81565b610cb8576040517f08c379a0000000000000000000000000000000000000000000000000000000008152600401610caf906128c8565b60405180910390fd5b83610cc281611d01565b15610d02576040517f08c379a0000000000000000000000000000000000000000000000000000000008152600401610cf990612934565b60405180910390fd5b600073ffffffffffffffffffffffffffffffffffffffff168473ffffffffffffffffffffffffffffffffffffffff1603610d71576040517f08c379a0000000000000000000000000000000000000000000000000000000008152600401610d6890612a0c565b60405180910390fd5b60006301e1338042610d839190612d45565b90506000610d8f611daa565b90506040518060e001604052803373ffffffffffffffffffffffffffffffffffffffff1681526020018773ffffffffffffffffffffffffffffffffffffffff1681526020018381526020016001151581526020018263ffffffff16815260200186815260200160001515815250600288604051610e0c919061278d565b908152602001604051809103902060008201518160000160006101000a81548173ffffffffffffffffffffffffffffffffffffffff021916908373ffffffffffffffffffffffffffffffffffffffff16021790555060208201518160010160006101000a81548173ffffffffffffffffffffffffffffffffffffffff021916908373ffffffffffffffffffffffffffffffffffffffff1602179055506040820151816002015560608201518160030160006101000a81548160ff02191690831515021790555060808201518160030160016101000a81548163ffffffff021916908363ffffffff16021790555060a0820151816004015560c08201518160050160006101000a81548160ff021916908315150217905550905050600360003373ffffffffffffffffffffffffffffffffffffffff1673ffffffffffffffffffffffffffffffffffffffff16815260200190815260200160002087908060018154018082558091505060019003906000526020600020016000909190919091509081610f979190612c44565b508063ffffffff163373ffffffffffffffffffffffffffffffffffffffff1688604051610fc4919061278d565b60405180910390207fe515f8c410e9b7e3bffbcb02b4689bc185588b6d5c0460847c0879e808cb1e6885604051610ffb919061244c565b60405180910390a45050505061100f611ddf565b505050565b6000600282604051611026919061278d565b9081526020016040518091039020600201549050919050565b6000600282604051611051919061278d565b908152602001604051809103902060030160019054906101000a900463ffffffff169050919050565b611082611de8565b61108c6000611e6f565b565b611096611a3b565b8560038151101580156110ab5750603f815111155b6110ea576040517f08c379a00000000000000000000000000000000000000000000000000000000081526004016110e19061285c565b60405180910390fd5b6110f381611a81565b611132576040517f08c379a0000000000000000000000000000000000000000000000000000000008152600401611129906128c8565b60405180910390fd5b8661113c81611d01565b1561117c576040517f08c379a000000000000000000000000000000000000000000000000000000000815260040161117390612934565b60405180910390fd5b600073ffffffffffffffffffffffffffffffffffffffff168773ffffffffffffffffffffffffffffffffffffffff16036111eb576040517f08c379a00000000000000000000000000000000000000000000000000000000081526004016111e2906129a0565b60405180910390fd5b600073ffffffffffffffffffffffffffffffffffffffff168673ffffffffffffffffffffffffffffffffffffffff160361125a576040517f08c379a000000000000000000000000000000000000000000000000000000000815260040161125190612a0c565b60405180910390fd5b42851161129c576040517f08c379a000000000000000000000000000000000000000000000000000000000815260040161129390612a78565b60405180910390fd5b6040518060e001604052808873ffffffffffffffffffffffffffffffffffffffff1681526020018773ffffffffffffffffffffffffffffffffffffffff1681526020018681526020016001151581526020018463ffffffff16815260200185815260200160011515815250600289604051611317919061278d565b908152602001604051809103902060008201518160000160006101000a81548173ffffffffffffffffffffffffffffffffffffffff021916908373ffffffffffffffffffffffffffffffffffffffff16021790555060208201518160010160006101000a81548173ffffffffffffffffffffffffffffffffffffffff021916908373ffffffffffffffffffffffffffffffffffffffff1602179055506040820151816002015560608201518160030160006101000a81548160ff02191690831515021790555060808201518160030160016101000a81548163ffffffff021916908363ffffffff16021790555060a0820151816004015560c08201518160050160006101000a81548160ff021916908315150217905550905050600360008873ffffffffffffffffffffffffffffffffffffffff1673ffffffffffffffffffffffffffffffffffffffff168152602001908152602001600020889080600181540180825580915050600190039060005260206000200160009091909190915090816114a29190612c44565b5060006114ad611daa565b90508363ffffffff168873ffffffffffffffffffffffffffffffffffffffff168a6040516114db919061278d565b60405180910390207fe515f8c410e9b7e3bffbcb02b4689bc185588b6d5c0460847c0879e808cb1e6889604051611512919061244c565b60405180910390a48363ffffffff168873ffffffffffffffffffffffffffffffffffffffff168a604051611546919061278d565b60405180910390207fd09df068ae264732164764454d91f03a7f4296855bdd23645a3683ccedd514768460405161157d9190612476565b60405180910390a4505050611590611ddf565b505050505050565b6002818051602081018201805184825260208301602085012081835280955050505050506000915090508060000160009054906101000a900473ffffffffffffffffffffffffffffffffffffffff16908060010160009054906101000a900473ffffffffffffffffffffffffffffffffffffffff16908060020154908060030160009054906101000a900460ff16908060030160019054906101000a900463ffffffff16908060040154908060050160009054906101000a900460ff16905087565b60008060009054906101000a900473ffffffffffffffffffffffffffffffffffffffff16905090565b60046020528060005260406000206000915054906101000a900460ff1681565b60006002826040516116b5919061278d565b9081526020016040518091039020600401549050919050565b6116d6611de8565b80600460008473ffffffffffffffffffffffffffffffffffffffff1673ffffffffffffffffffffffffffffffffffffffff16815260200190815260200160002060006101000a81548160ff0219169083151502179055508173ffffffffffffffffffffffffffffffffffffffff167f4657469e875410154cdbddd8387e864f47496059d69bda66e993dd34b6ef72f982604051611773919061226e565b60405180910390a25050565b600080600283604051611792919061278d565b90815260200160405180910390209050600073ffffffffffffffffffffffffffffffffffffffff168160000160009054906101000a900473ffffffffffffffffffffffffffffffffffffffff1673ffffffffffffffffffffffffffffffffffffffff161415801561181157508060030160009054906101000a900460ff165b80156118205750806002015442105b15611852578060010160009054906101000a900473ffffffffffffffffffffffffffffffffffffffff16915050611858565b60009150505b919050565b600060028260405161186f919061278d565b908152602001604051809103902060050160009054906101000a900460ff169050919050565b6060600360008373ffffffffffffffffffffffffffffffffffffffff1673ffffffffffffffffffffffffffffffffffffffff168152602001908152602001600020805480602002602001604051908101604052809291908181526020016000905b828210156119a257838290600052602060002001805461191590612720565b80601f016020809104026020016040519081016040528092919081815260200182805461194190612720565b801561198e5780601f106119635761010080835404028352916020019161198e565b820191906000526020600020905b81548152906001019060200180831161197157829003601f168201915b5050505050815260200190600101906118f6565b505050509050919050565b6301e1338081565b6119bd611de8565b600073ffffffffffffffffffffffffffffffffffffffff168173ffffffffffffffffffffffffffffffffffffffff1603611a2f5760006040517f1e4fbdf7000000000000000000000000000000000000000000000000000000008152600401611a269190612298565b60405180910390fd5b611a3881611e6f565b50565b600260015403611a77576040517f3ee5aeb500000000000000000000000000000000000000000000000000000000815260040160405180910390fd5b6002600181905550565b6000808290506000815103611a9a576000915050611cfc565b60005b8151811015611c45576000828281518110611abb57611aba612d79565b5b602001015160f81c60f81b90506000603060f81b827effffffffffffffffffffffffffffffffffffffffffffffffffffffffffffff191610158015611b265750603960f81b827effffffffffffffffffffffffffffffffffffffffffffffffffffffffffffff191611155b80611b895750606160f81b827effffffffffffffffffffffffffffffffffffffffffffffffffffffffffffff191610158015611b885750607a60f81b827effffffffffffffffffffffffffffffffffffffffffffffffffffffffffffff191611155b5b80611bec5750604160f81b827effffffffffffffffffffffffffffffffffffffffffffffffffffffffffffff191610158015611beb5750605a60f81b827effffffffffffffffffffffffffffffffffffffffffffffffffffffffffffff191611155b5b80611c1c5750602d60f81b827effffffffffffffffffffffffffffffffffffffffffffffffffffffffffffff1916145b905080611c30576000945050505050611cfc565b50508080611c3d90612da8565b915050611a9d565b50602d60f81b81600081518110611c5f57611c5e612d79565b5b602001015160f81c60f81b7effffffffffffffffffffffffffffffffffffffffffffffffffffffffffffff19161480611ce75750602d60f81b8160018351611ca79190612df0565b81518110611cb857611cb7612d79565b5b602001015160f81c60f81b7effffffffffffffffffffffffffffffffffffffffffffffffffffffffffffff1916145b15611cf6576000915050611cfc565b60019150505b919050565b600080600283604051611d14919061278d565b90815260200160405180910390209050600073ffffffffffffffffffffffffffffffffffffffff168160000160009054906101000a900473ffffffffffffffffffffffffffffffffffffffff1673ffffffffffffffffffffffffffffffffffffffff1614158015611d9357508060030160009054906101000a900460ff165b8015611da25750806002015442105b915050919050565b60008046905062aa36a78103611dc4576000915050611ddc565b61098a8103611dd7576001915050611ddc565b809150505b90565b60018081905550565b611df0611f33565b73ffffffffffffffffffffffffffffffffffffffff16611e0e61165a565b73ffffffffffffffffffffffffffffffffffffffff1614611e6d57611e31611f33565b6040517f118cdaa7000000000000000000000000000000000000000000000000000000008152600401611e649190612298565b60405180910390fd5b565b60008060009054906101000a900473ffffffffffffffffffffffffffffffffffffffff169050816000806101000a81548173ffffffffffffffffffffffffffffffffffffffff021916908373ffffffffffffffffffffffffffffffffffffffff1602179055508173ffffffffffffffffffffffffffffffffffffffff168173ffffffffffffffffffffffffffffffffffffffff167f8be0079c531659141344cd1fd0a4f28419497f9722a3daafe3b4186f6b6457e060405160405180910390a35050565b600033905090565b6000604051905090565b600080fd5b600080fd5b600073ffffffffffffffffffffffffffffffffffffffff82169050919050565b6000611f7a82611f4f565b9050919050565b611f8a81611f6f565b8114611f9557600080fd5b50565b600081359050611fa781611f81565b92915050565b6000819050919050565b611fc081611fad565b8114611fcb57600080fd5b50565b600081359050611fdd81611fb7565b92915050565b60008060408385031215611ffa57611ff9611f45565b5b600061200885828601611f98565b925050602061201985828601611fce565b9150509250929050565b600081519050919050565b600082825260208201905092915050565b60005b8381101561205d578082015181840152602081019050612042565b60008484015250505050565b6000601f19601f8301169050919050565b600061208582612023565b61208f818561202e565b935061209f81856020860161203f565b6120a881612069565b840191505092915050565b600060208201905081810360008301526120cd818461207a565b905092915050565b600080fd5b600080fd5b7f4e487b7100000000000000000000000000000000000000000000000000000000600052604160045260246000fd5b61211782612069565b810181811067ffffffffffffffff82111715612136576121356120df565b5b80604052505050565b6000612149611f3b565b9050612155828261210e565b919050565b600067ffffffffffffffff821115612175576121746120df565b5b61217e82612069565b9050602081019050919050565b82818337600083830152505050565b60006121ad6121a88461215a565b61213f565b9050828152602081018484840111156121c9576121c86120da565b5b6121d484828561218b565b509392505050565b600082601f8301126121f1576121f06120d5565b5b813561220184826020860161219a565b91505092915050565b6000602082840312156122205761221f611f45565b5b600082013567ffffffffffffffff81111561223e5761223d611f4a565b5b61224a848285016121dc565b91505092915050565b60008115159050919050565b61226881612253565b82525050565b6000602082019050612283600083018461225f565b92915050565b61229281611f6f565b82525050565b60006020820190506122ad6000830184612289565b92915050565b6000819050919050565b6122c6816122b3565b81146122d157600080fd5b50565b6000813590506122e3816122bd565b92915050565b600063ffffffff82169050919050565b612302816122e9565b811461230d57600080fd5b50565b60008135905061231f816122f9565b92915050565b60008060008060008060c0878903121561234257612341611f45565b5b600087013567ffffffffffffffff8111156123605761235f611f4a565b5b61236c89828a016121dc565b965050602061237d89828a01611f98565b955050604061238e89828a01611f98565b945050606061239f89828a01611fce565b93505060806123b089828a016122d4565b92505060a06123c189828a01612310565b9150509295509295509295565b6000806000606084860312156123e7576123e6611f45565b5b600084013567ffffffffffffffff81111561240557612404611f4a565b5b612411868287016121dc565b935050602061242286828701611f98565b9250506040612433868287016122d4565b9150509250925092565b61244681611fad565b82525050565b6000602082019050612461600083018461243d565b92915050565b612470816122e9565b82525050565b600060208201905061248b6000830184612467565b92915050565b61249a816122b3565b82525050565b600060e0820190506124b5600083018a612289565b6124c26020830189612289565b6124cf604083018861243d565b6124dc606083018761225f565b6124e96080830186612467565b6124f660a0830185612491565b61250360c083018461225f565b98975050505050505050565b60006020828403121561252557612524611f45565b5b600061253384828501611f98565b91505092915050565b60006020820190506125516000830184612491565b92915050565b61256081612253565b811461256b57600080fd5b50565b60008135905061257d81612557565b92915050565b6000806040838503121561259a57612599611f45565b5b60006125a885828601611f98565b92505060206125b98582860161256e565b9150509250929050565b600081519050919050565b600082825260208201905092915050565b6000819050602082019050919050565b600082825260208201905092915050565b600061260b82612023565b61261581856125ef565b935061262581856020860161203f565b61262e81612069565b840191505092915050565b60006126458383612600565b905092915050565b6000602082019050919050565b6000612665826125c3565b61266f81856125ce565b935083602082028501612681856125df565b8060005b858110156126bd578484038952815161269e8582612639565b94506126a98361264d565b925060208a01995050600181019050612685565b50829750879550505050505092915050565b600060208201905081810360008301526126e9818461265a565b905092915050565b7f4e487b7100000000000000000000000000000000000000000000000000000000600052602260045260246000fd5b6000600282049050600182168061273857607f821691505b60208210810361274b5761274a6126f1565b5b50919050565b600081905092915050565b600061276782612023565b6127718185612751565b935061278181856020860161203f565b80840191505092915050565b6000612799828461275c565b915081905092915050565b7f4e6f7420617574686f72697a656420627269646765206578656375746f720000600082015250565b60006127da601e8361202e565b91506127e5826127a4565b602082019050919050565b60006020820190508181036000830152612809816127cd565b9050919050565b7f496e76616c6964206e616d65206c656e67746800000000000000000000000000600082015250565b600061284660138361202e565b915061285182612810565b602082019050919050565b6000602082019050818103600083015261287581612839565b9050919050565b7f496e76616c6964206e616d6520666f726d617400000000000000000000000000600082015250565b60006128b260138361202e565b91506128bd8261287c565b602082019050919050565b600060208201905081810360008301526128e1816128a5565b9050919050565b7f4e616d6520616c72656164792074616b656e0000000000000000000000000000600082015250565b600061291e60128361202e565b9150612929826128e8565b602082019050919050565b6000602082019050818103600083015261294d81612911565b9050919050565b7f496e76616c6964206f776e657220616464726573730000000000000000000000600082015250565b600061298a60158361202e565b915061299582612954565b602082019050919050565b600060208201905081810360008301526129b98161297d565b9050919050565b7f496e76616c6964207265736f6c76656420616464726573730000000000000000600082015250565b60006129f660188361202e565b9150612a01826129c0565b602082019050919050565b60006020820190508181036000830152612a25816129e9565b9050919050565b7f496e76616c69642065787069726174696f6e2074696d65000000000000000000600082015250565b6000612a6260178361202e565b9150612a6d82612a2c565b602082019050919050565b60006020820190508181036000830152612a9181612a55565b9050919050565b60008190508160005260206000209050919050565b60006020601f8301049050919050565b600082821b905092915050565b600060088302612afa7fffffffffffffffffffffffffffffffffffffffffffffffffffffffffffffffff82612abd565b612b048683612abd565b95508019841693508086168417925050509392505050565b6000819050919050565b6000612b41612b3c612b3784611fad565b612b1c565b611fad565b9050919050565b6000819050919050565b612b5b83612b26565b612b6f612b6782612b48565b848454612aca565b825550505050565b600090565b612b84612b77565b612b8f818484612b52565b505050565b5b81811015612bb357612ba8600082612b7c565b600181019050612b95565b5050565b601f821115612bf857612bc981612a98565b612bd284612aad565b81016020851015612be1578190505b612bf5612bed85612aad565b830182612b94565b50505b505050565b600082821c905092915050565b6000612c1b60001984600802612bfd565b1980831691505092915050565b6000612c348383612c0a565b9150826002028217905092915050565b612c4d82612023565b67ffffffffffffffff811115612c6657612c656120df565b5b612c708254612720565b612c7b828285612bb7565b600060209050601f831160018114612cae5760008415612c9c578287015190505b612ca68582612c28565b865550612d0e565b601f198416612cbc86612a98565b60005b82811015612ce457848901518255600182019150602085019450602081019050612cbf565b86831015612d015784890151612cfd601f891682612c0a565b8355505b6001600288020188555050505b505050505050565b7f4e487b7100000000000000000000000000000000000000000000000000000000600052601160045260246000fd5b6000612d5082611fad565b9150612d5b83611fad565b9250828201905080821115612d7357612d72612d16565b5b92915050565b7f4e487b7100000000000000000000000000000000000000000000000000000000600052603260045260246000fd5b6000612db382611fad565b91507fffffffffffffffffffffffffffffffffffffffffffffffffffffffffffffffff8203612de557612de4612d16565b5b600182019050919050565b6000612dfb82611fad565b9150612e0683611fad565b9250828203905081811115612e1e57612e1d612d16565b5b9291505056fea2646970667358221220d9a27045038745d3847dbed130829de58bf2998b10273be29677751d948fa4f864736f6c63430008140033",
  "linkReferences": {},
  "deployedLinkReferences": {}
}