{
    "_format": "hh-sol-artifact-1",
    "contractName": "EggRegistry",
    "sourceName": "contracts/EggRegistry.sol",
    "abi": [
        {
            "anonymous": false,
            "inputs": [
                {
                    "indexed": true,
                    "internalType": "string",
                    "name": "name",
                    "type": "string"
                },
                {
                    "indexed": true,
                    "internalType": "address",
                    "name": "owner",
                    "type": "address"
                },
                {
                    "indexed": false,
                    "internalType": "bool",
                    "name": "isBridged",
                    "type": "bool"
                }
            ],
            "name": "NameRegistered",
            "type": "event"
        },
        {
            "inputs": [
                {
                    "internalType": "string",
                    "name": "name",
                    "type": "string"
                }
            ],
            "name": "getNameData",
            "outputs": [
                {
                    "internalType": "address",
                    "name": "owner",
                    "type": "address"
                },
                {
                    "internalType": "bool",
                    "name": "exists",
                    "type": "bool"
                }
            ],
            "stateMutability": "view",
            "type": "function"
        },
        {
            "inputs": [
                {
                    "internalType": "address",
                    "name": "owner",
                    "type": "address"
                }
            ],
            "name": "getOwnerNames",
            "outputs": [
                {
                    "internalType": "string[]",
                    "name": "",
                    "type": "string[]"
                }
            ],
            "stateMutability": "view",
            "type": "function"
        },
        {
            "inputs": [
                {
                    "internalType": "string",
                    "name": "name",
                    "type": "string"
                }
            ],
            "name": "isNameAvailable",
            "outputs": [
                {
                    "internalType": "bool",
                    "name": "",
                    "type": "bool"
                }
            ],
            "stateMutability": "view",
            "type": "function"
        },
        {
            "inputs": [
                {
                    "internalType": "string",
                    "name": "",
                    "type": "string"
                }
            ],
            "name": "nameExists",
            "outputs": [
                {
                    "internalType": "bool",
                    "name": "",
                    "type": "bool"
                }
            ],
            "stateMutability": "view",
            "type": "function"
        },
        {
            "inputs": [
                {
                    "internalType": "string",
                    "name": "",
                    "type": "string"
                }
            ],
            "name": "nameToOwner",
            "outputs": [
                {
                    "internalType": "address",
                    "name": "",
                    "type": "address"
                }
            ],
            "stateMutability": "view",
            "type": "function"
        },
        {
            "inputs": [
                {
                    "internalType": "address",
                    "name": "",
                    "type": "address"
                },
                {
                    "internalType": "uint256",
                    "name": "",
                    "type": "uint256"
                }
            ],
            "name": "ownerToNames",
            "outputs": [
                {
                    "internalType": "string",
                    "name": "",
                    "type": "string"
                }
            ],
            "stateMutability": "view",
            "type": "function"
        },
        {
            "inputs": [
                {
                    "internalType": "string",
                    "name": "name",
                    "type": "string"
                },
                {
                    "internalType": "address",
                    "name": "owner",
                    "type": "address"
                }
            ],
            "name": "receiveBridgedName",
            "outputs": [],
            "stateMutability": "payable",
            "type": "function"
        },
        {
            "inputs": [
                {
                    "internalType": "string",
                    "name": "name",
                    "type": "string"
                }
            ],
            "name": "registerName",
            "outputs": [],
            "stateMutability": "nonpayable",
            "type": "function"
        }
    ],
    "bytecode": "0x608060405234801561001057600080fd5b5061169a806100206000396000f3fe60806040526004361061007b5760003560e01c8063c0d631ad1161004e578063c0d631ad14610161578063cc637afe1461017d578063db6fb793146101ba578063de7fcb5c146101f75761007b565b80630830602b146100805780630a796374146100a9578063694c2fc2146100e75780638cf44d2114610124575b600080fd5b34801561008c57600080fd5b506100a760048036038101906100a29190610cdf565b610234565b005b3480156100b557600080fd5b506100d060048036038101906100cb9190610cdf565b6104a9565b6040516100de929190610d84565b60405180910390f35b3480156100f357600080fd5b5061010e60048036038101906101099190610cdf565b610520565b60405161011b9190610dad565b60405180910390f35b34801561013057600080fd5b5061014b60048036038101906101469190610cdf565b610569565b6040516101589190610dc8565b60405180910390f35b61017b60048036038101906101769190610e0f565b6105b0565b005b34801561018957600080fd5b506101a4600480360381019061019f9190610cdf565b6107de565b6040516101b19190610dc8565b60405180910390f35b3480156101c657600080fd5b506101e160048036038101906101dc9190610e6b565b610814565b6040516101ee9190610fd9565b60405180910390f35b34801561020357600080fd5b5061021e60048036038101906102199190611031565b61092c565b60405161022b91906110bb565b60405180910390f35b600381511015801561024857506020815111155b610287576040517f08c379a000000000000000000000000000000000000000000000000000000000815260040161027e90611129565b60405180910390fd5b6002816040516102979190611185565b908152602001604051809103902060009054906101000a900460ff16156102f3576040517f08c379a00000000000000000000000000000000000000000000000000000000081526004016102ea906111e8565b60405180910390fd5b6102fc816109e5565b61033b576040517f08c379a000000000000000000000000000000000000000000000000000000000815260040161033290611254565b60405180910390fd5b3360008260405161034c9190611185565b908152602001604051809103902060006101000a81548173ffffffffffffffffffffffffffffffffffffffff021916908373ffffffffffffffffffffffffffffffffffffffff160217905550600160003373ffffffffffffffffffffffffffffffffffffffff1673ffffffffffffffffffffffffffffffffffffffff168152602001908152602001600020819080600181540180825580915050600190039060005260206000200160009091909190915090816104099190611480565b50600160028260405161041c9190611185565b908152602001604051809103902060006101000a81548160ff0219169083151502179055503373ffffffffffffffffffffffffffffffffffffffff16816040516104669190611185565b60405180910390207f9b3bbe4dba63b780975dde1d52ee2fafccc5d74735c0f862ccf9b2a205861f2b600060405161049e9190610dc8565b60405180910390a350565b6000806000836040516104bc9190611185565b908152602001604051809103902060009054906101000a900473ffffffffffffffffffffffffffffffffffffffff166002846040516104fb9190611185565b908152602001604051809103902060009054906101000a900460ff1691509150915091565b6000818051602081018201805184825260208301602085012081835280955050505050506000915054906101000a900473ffffffffffffffffffffffffffffffffffffffff1681565b600060028260405161057b9190611185565b908152602001604051809103902060009054906101000a900460ff161580156105a957506105a8826109e5565b5b9050919050565b60038251101580156105c457506020825111155b610603576040517f08c379a00000000000000000000000000000000000000000000000000000000081526004016105fa90611129565b60405180910390fd5b6002826040516106139190611185565b908152602001604051809103902060009054906101000a900460ff161561066f576040517f08c379a00000000000000000000000000000000000000000000000000000000081526004016106669061159e565b60405180910390fd5b806000836040516106809190611185565b908152602001604051809103902060006101000a81548173ffffffffffffffffffffffffffffffffffffffff021916908373ffffffffffffffffffffffffffffffffffffffff160217905550600160008273ffffffffffffffffffffffffffffffffffffffff1673ffffffffffffffffffffffffffffffffffffffff1681526020019081526020016000208290806001815401808255809150506001900390600052602060002001600090919091909150908161073d9190611480565b5060016002836040516107509190611185565b908152602001604051809103902060006101000a81548160ff0219169083151502179055508073ffffffffffffffffffffffffffffffffffffffff168260405161079a9190611185565b60405180910390207f9b3bbe4dba63b780975dde1d52ee2fafccc5d74735c0f862ccf9b2a205861f2b60016040516107d29190610dc8565b60405180910390a35050565b6002818051602081018201805184825260208301602085012081835280955050505050506000915054906101000a900460ff1681565b6060600160008373ffffffffffffffffffffffffffffffffffffffff1673ffffffffffffffffffffffffffffffffffffffff168152602001908152602001600020805480602002602001604051908101604052809291908181526020016000905b82821015610921578382906000526020600020018054610894906112a3565b80601f01602080910402602001604051908101604052809291908181526020018280546108c0906112a3565b801561090d5780601f106108e25761010080835404028352916020019161090d565b820191906000526020600020905b8154815290600101906020018083116108f057829003601f168201915b505050505081526020019060010190610875565b505050509050919050565b6001602052816000526040600020818154811061094857600080fd5b90600052602060002001600091509150508054610964906112a3565b80601f0160208091040260200160405190810160405280929190818152602001828054610990906112a3565b80156109dd5780601f106109b2576101008083540402835291602001916109dd565b820191906000526020600020905b8154815290600101906020018083116109c057829003601f168201915b505050505081565b60008082905060008151036109fe576000915050610b80565b60005b8151811015610b79576000828281518110610a1f57610a1e6115be565b5b602001015160f81c60f81b90506000603060f81b827effffffffffffffffffffffffffffffffffffffffffffffffffffffffffffff191610158015610a8a5750603960f81b827effffffffffffffffffffffffffffffffffffffffffffffffffffffffffffff191611155b80610aed5750606160f81b827effffffffffffffffffffffffffffffffffffffffffffffffffffffffffffff191610158015610aec5750607a60f81b827effffffffffffffffffffffffffffffffffffffffffffffffffffffffffffff191611155b5b80610b505750604160f81b827effffffffffffffffffffffffffffffffffffffffffffffffffffffffffffff191610158015610b4f5750605a60f81b827effffffffffffffffffffffffffffffffffffffffffffffffffffffffffffff191611155b5b905080610b64576000945050505050610b80565b50508080610b719061161c565b915050610a01565b5060019150505b919050565b6000604051905090565b600080fd5b600080fd5b600080fd5b600080fd5b6000601f19601f8301169050919050565b7f4e487b7100000000000000000000000000000000000000000000000000000000600052604160045260246000fd5b610bec82610ba3565b810181811067ffffffffffffffff82111715610c0b57610c0a610bb4565b5b80604052505050565b6000610c1e610b85565b9050610c2a8282610be3565b919050565b600067ffffffffffffffff821115610c4a57610c49610bb4565b5b610c5382610ba3565b9050602081019050919050565b82818337600083830152505050565b6000610c82610c7d84610c2f565b610c14565b905082815260208101848484011115610c9e57610c9d610b9e565b5b610ca9848285610c60565b509392505050565b600082601f830112610cc657610cc5610b99565b5b8135610cd6848260208601610c6f565b91505092915050565b600060208284031215610cf557610cf4610b8f565b5b600082013567ffffffffffffffff811115610d1357610d12610b94565b5b610d1f84828501610cb1565b91505092915050565b600073ffffffffffffffffffffffffffffffffffffffff82169050919050565b6000610d5382610d28565b9050919050565b610d6381610d48565b82525050565b60008115159050919050565b610d7e81610d69565b82525050565b6000604082019050610d996000830185610d5a565b610da66020830184610d75565b9392505050565b6000602082019050610dc26000830184610d5a565b92915050565b6000602082019050610ddd6000830184610d75565b92915050565b610dec81610d48565b8114610df757600080fd5b50565b600081359050610e0981610de3565b92915050565b60008060408385031215610e2657610e25610b8f565b5b600083013567ffffffffffffffff811115610e4457610e43610b94565b5b610e5085828601610cb1565b9250506020610e6185828601610dfa565b9150509250929050565b600060208284031215610e8157610e80610b8f565b5b6000610e8f84828501610dfa565b91505092915050565b600081519050919050565b600082825260208201905092915050565b6000819050602082019050919050565b600081519050919050565b600082825260208201905092915050565b60005b83811015610efe578082015181840152602081019050610ee3565b60008484015250505050565b6000610f1582610ec4565b610f1f8185610ecf565b9350610f2f818560208601610ee0565b610f3881610ba3565b840191505092915050565b6000610f4f8383610f0a565b905092915050565b6000602082019050919050565b6000610f6f82610e98565b610f798185610ea3565b935083602082028501610f8b85610eb4565b8060005b85811015610fc75784840389528151610fa88582610f43565b9450610fb383610f57565b925060208a01995050600181019050610f8f565b50829750879550505050505092915050565b60006020820190508181036000830152610ff38184610f64565b905092915050565b6000819050919050565b61100e81610ffb565b811461101957600080fd5b50565b60008135905061102b81611005565b92915050565b6000806040838503121561104857611047610b8f565b5b600061105685828601610dfa565b92505060206110678582860161101c565b9150509250929050565b600082825260208201905092915050565b600061108d82610ec4565b6110978185611071565b93506110a7818560208601610ee0565b6110b081610ba3565b840191505092915050565b600060208201905081810360008301526110d58184611082565b905092915050565b7f496e76616c6964206e616d65206c656e67746800000000000000000000000000600082015250565b6000611113601383611071565b915061111e826110dd565b602082019050919050565b6000602082019050818103600083015261114281611106565b9050919050565b600081905092915050565b600061115f82610ec4565b6111698185611149565b9350611179818560208601610ee0565b80840191505092915050565b60006111918284611154565b915081905092915050565b7f4e616d6520616c72656164792074616b656e0000000000000000000000000000600082015250565b60006111d2601283611071565b91506111dd8261119c565b602082019050919050565b60006020820190508181036000830152611201816111c5565b9050919050565b7f496e76616c6964206e616d6520666f726d617400000000000000000000000000600082015250565b600061123e601383611071565b915061124982611208565b602082019050919050565b6000602082019050818103600083015261126d81611231565b9050919050565b7f4e487b7100000000000000000000000000000000000000000000000000000000600052602260045260246000fd5b600060028204905060018216806112bb57607f821691505b6020821081036112ce576112cd611274565b5b50919050565b60008190508160005260206000209050919050565b60006020601f8301049050919050565b600082821b905092915050565b6000600883026113367fffffffffffffffffffffffffffffffffffffffffffffffffffffffffffffffff826112f9565b61134086836112f9565b95508019841693508086168417925050509392505050565b6000819050919050565b600061137d61137861137384610ffb565b611358565b610ffb565b9050919050565b6000819050919050565b61139783611362565b6113ab6113a382611384565b848454611306565b825550505050565b600090565b6113c06113b3565b6113cb81848461138e565b505050565b5b818110156113ef576113e46000826113b8565b6001810190506113d1565b5050565b601f82111561143457611405816112d4565b61140e846112e9565b8101602085101561141d578190505b611431611429856112e9565b8301826113d0565b50505b505050565b600082821c905092915050565b600061145760001984600802611439565b1980831691505092915050565b60006114708383611446565b9150826002028217905092915050565b61148982610ec4565b67ffffffffffffffff8111156114a2576114a1610bb4565b5b6114ac82546112a3565b6114b78282856113f3565b600060209050601f8311600181146114ea57600084156114d8578287015190505b6114e28582611464565b86555061154a565b601f1984166114f8866112d4565b60005b82811015611520578489015182556001820191506020850194506020810190506114fb565b8683101561153d5784890151611539601f891682611446565b8355505b6001600288020188555050505b505050505050565b7f4e616d6520616c72656164792065786973747300000000000000000000000000600082015250565b6000611588601383611071565b915061159382611552565b602082019050919050565b600060208201905081810360008301526115b78161157b565b9050919050565b7f4e487b7100000000000000000000000000000000000000000000000000000000600052603260045260246000fd5b7f4e487b7100000000000000000000000000000000000000000000000000000000600052601160045260246000fd5b600061162782610ffb565b91507fffffffffffffffffffffffffffffffffffffffffffffffffffffffffffffffff8203611659576116586115ed565b5b60018201905091905056fea2646970667358221220656a4ae313a5ed734833cced97f26a08b656396b94305dd20fca7063ad2aa0d364736f6c63430008140033",
    "linkReferences": {},
    "deployedLinkReferences": {}
}